:020000040800F2
:10000000A8D1012061020008511B000891160008C8
:10001000CD1A00082D0B0008812700080000000001
:10002000000000000000000000000000A101000826
:10003000B90D000800000000FD010008252400089B
:100040007B0200087B0200087B020008DD2000081C
:100050007B0200087B0200087B0200087B0200088C
:100060007B0200087B0200087B0200087B0200087C
:100070007B0200087B0200087B0200087B0200086C
:100080007B0200087B0200087B0200087B0200085C
:100090007B0200087B0200087B0200087B0200084C
:1000A0007B0200087B0200087B0200087B0200083C
:1000B0007B0200087B0200087B0200087B0200082C
:1000C0007B0200087B0200087B0200087B0200081C
:1000D0007B0200087B0200087B0200087B0200080C
:1000E0007B020008391E00087B0200087B02000822
:1000F0007B0200087B0200087B0200087B020008EC
:100100007B020008812100087B0200087B020008B6
:100110007B0200087B0200087B0200087B020008CB
:100120007B0200087B0200087B0200087B020008BB
:100130007B0200087B0200087B0200087B020008AB
:100140007B0200087B0200087B0200087B0200089B
:100150007B0200087B0200087B0200087B0200088B
:100160007B0200087B0200087B0200087B0200087B
:100170007B0200087B0200087B0200087B0200086B
:100180007B0200087B020008DFF810D000F0C0FB03
:1001900000480047911F0208AFF30080A8D101205A
:1001A0002C4B19680868B0E8F04F80F30988BFF35A
:1001B0006F8F4FF0000080F311887047000000003F
:1001C00008480068006880F308884FF0000080F35A
:1001D000148862B661B6BFF34F8FBFF36F8F00DF35
:1001E00000BF00BF08ED00E0DFF80C00016841F43B
:1001F00070010160704700BF88ED00E0EFF30980F7
:10020000BFF36F8F134B1A681EF0100F08BF20ED5D
:10021000108A20E9F04F106009B44FF0500080F3CD
:100220001188BFF34F8FBFF36F8F29F01FFB4FF083
:10023000000080F3118809BC19680868B0E8F04F25
:100240001EF0100F08BFB0EC108A80F30988BFF3CE
:100250006F8F704774000020EFF305807047000037
:100260000648804706480047FEE7FEE7FEE7FEE750
:10027000FEE7FEE7FEE7FEE7FEE7FEE751240008A3
:10028000890100082DE9F05F0546002092469B4653
:1002900088460646814640241BE02846414647469C
:1002A000224600F04FFA53465A46C01A914110D3E5
:1002B00011461846224600F036FA2D1A67EB01085F
:1002C0004F4622460120002100F02DFA17EB0009CD
:1002D0004E41201EA4F10104DFDC484631462A4687
:1002E0004346BDE8F09F40EA01039B0703D009E0C5
:1002F00008C9121F08C0042AFAD203E011F8013B12
:1003000000F8013B521EF9D27047D2B201E000F86A
:10031000012B491EFBD270470022F6E710B51346A9
:100320000A4604461946FFF7F0FF204610BD421C5E
:1003300010F8011B0029FBD1801A704710B500226C
:1003400000E0521C835C8C5CA34201D1002BF8D1ED
:10035000D8B2E1B2401A10BD034611F8012B00F8E3
:10036000012B002AF9D1184670472DE9FE4F80462F
:1003700081EA0300C00F0C46009021F0004123F0F9
:100380000045B8EB0200A94105D2404621469046FF
:100390001C460B46024623F00040104347D0270D71
:1003A000C7F30A00C3F30A510290401A0190402893
:1003B0006BDAC3F3130040F4801B0098924620B11F
:1003C0000023D2EB030A63EB0B0B01985946C0F1F3
:1003D0004002504600F0A7F906460D4650465946E1
:1003E000019A00F0BFF910EB08006141002487EA90
:1003F000115284EAE7731A4340D0009A62B3019A1B
:10040000012A4FEA075215DC001B61EB02014FF095
:10041000004202EA0752CDE90042001C41F580117A
:1004200032462B4600F0F6F903B0BDE8F08F4046A7
:100430002146F9E7001B61EB0201001C41F5801326
:1004400000185B412018A2F5001747EB030140EAB2
:10045000D570B6196D4111E06D084FEA360645EAD0
:10046000C0754FEA0752001B61EB0201001C41F509
:10047000801149084FEA30000019514132462B469D
:1004800003B0BDE8F04F00F0B6B90098012240007B
:100490000023D0EB020263EBE073009821464FEAA1
:1004A000E074B8EB000061EB0401E9E783F000437E
:1004B0005BE781F0004158E72DE9FE4F81EA030434
:1004C00004F0004421F0004100944FF0000B23F0B1
:1004D000004350EA01045ED052EA03045BD0C3F348
:1004E0000A54C1F30A552C44A4F2F3340194A0FB3E
:1004F0000254C1F3130141F48011C3F3130343F415
:10050000801301FB024400FB034E840A970A44EA6D
:10051000815447EA8357A4FB076802958D0A05FBBF
:1005200007854FEA932C04FB0C542705029D4FEAE4
:10053000065847EA1637B5EB08056EEB070C870E31
:10054000920E47EA811742EA8312A7FB0201B6EB3B
:100550000B0164EB00042B0D43EA0C335E1844EBF3
:100560001C50DA465146E7FB0201C5F313044FEA7B
:100570000B3343EA14534FEA0432019C43EA060367
:10058000A4F10C040294009CCDE900B400F042F9FF
:1005900003B0BDE8F08F00200146F9E72DE9F04DEA
:1005A00081EA030404F0004B21F0004514464FF0AB
:1005B000000A23F0004150EA050220D054EA01026B
:1005C0001DD0C5F30A570246C5F31303C1F3130048
:1005D000C1F30A5640F4801543F48013A7EB0608D4
:1005E000101BD64608F2FD3873EB050002D308F164
:1005F000010801E092185B41B8F1000F03DA002016
:100600000146BDE8F08D00204FF480110646844677
:100610000EE0171B73EB050705D3121B63EB0503F5
:1006200006434CEA010C49084FEA300092185B413E
:1006300050EA0107EDD152EA030012D082EA040029
:1006400083EA0501084305D0101BAB4106D2012205
:10065000002306E000224FF0004302E06FF00102A9
:1006600053101AEB06004CEB085110EB0A0041EB5B
:100670000B01BDE8F04D00F0BEB80EB5C10F80EA29
:10068000E0700844CA07002140F233438DE80E00B1
:100690000A460B4600F0BEF803B000BD00F0004271
:1006A00030F000400AD0C10D01F56071C0F31600B2
:1006B00042EA0151C2084007114370470020014639
:1006C000704701F0004330B421F0004150EA0102CC
:1006D00006D00A0DA2F56072C1F31301002A02DCF4
:1006E00030BC00207047440F44EAC104C100E01848
:1006F00030BC00EBC25000F047B830B50B460146A5
:1007000000202022012409E021FA02F59D4205D3B0
:1007100003FA02F5491B04FA02F52844151EA2F15A
:100720000102F1DC30BD202A04DB203A00FA02F19C
:10073000002070479140C2F1200320FA03F31943CF
:1007400090407047202A04DB203A21FA02F0002171
:10075000704721FA02F3D040C2F1200291400843D1
:1007600019467047202A06DBCB17203A41FA02F0DF
:1007700043EAE07306E041FA02F3D040C2F12002FE
:1007800091400843194670470029A8BF7047401C94
:10079000490008BF20F00100704710B4B0FA80FC97
:1007A00000FA0CF050EA010404BF10BC704749B1D4
:1007B000CCF1200421FA04F411FA0CF118BF012144
:1007C00021430843A3EB0C01CB1D4FEA00614FEA24
:1007D000102042BF002010BC704700EBC3501044F3
:1007E0000029A4BF10BC7047401C490008BF20F07E
:1007F000010010BC704710B5141E73F1000408DA34
:10080000401C41F1000192185B411A4301D120F0D4
:10081000010010BD2DE9F04D92469B4611B1B1FA91
:1008200081F202E0B0FA80F220329046FFF77BFFBF
:1008300004460F4640EA0A0041EA0B0153465A4675
:10084000084313D0114653EA010019D0C8F1400201
:100850005046FFF777FF05460E465046594642463A
:10086000FFF761FF084305D0012004E02046394628
:10087000BDE8F08D0020054346EAE0762C4337437F
:100880000A986305E40AA0EB08000022FD0A44EA86
:1008900047540A3002D500200146E9E70105101946
:1008A0006941DDE9084500196941BDE8F04DA2E75D
:1008B000C1F30A52C1F3130140F2FF3341F4801136
:1008C0009A4202DA00200146704740F233439A42CE
:1008D000A2F2334202DC5242FFF734BFFFF723BFDC
:1008E00030B5041E71F1000404DB4FF000444042B7
:1008F00064EB0101141E73F1000405DB1C464FF08C
:100900000043524263EB0403994208BF904230BD5A
:10091000064C074D06E0E06840F0010394E807004C
:1009200098471034AC42F6D3FFF732FC94660308C4
:10093000B466030870B58C1810F8015B15F0070356
:1009400001D110F8013B2A1106D110F8012B03E068
:1009500010F8016B01F8016B5B1EF9D12B0705D470
:100960000023521E0DD401F8013BFAE710F8013BB9
:10097000CB1A921C03E013F8015B01F8015B521ED5
:10098000F9D5A142D8D3002070BD0029816802D0DA
:1009900041F0010101E021F0010181607047000098
:1009A000084B10B5D3F8042307490A40D0E90014D6
:1009B0002143D0E90240044321431143C3F8041307
:1009C00010BD000000200140E030FCFFC06C80B290
:1009D00070470246002012680A4200D0012070478A
:1009E00030B542680F4B0C791A400B6842EA04227A
:1009F0001343436082680C4B4D791A40D1E903439D
:100A000023438C6844EA4504234313438360C26A4A
:100A1000097D22F47002491EC9B242EA0151C16245
:100A200030BD0000FFFEFFFCFDF7FFC070B50726DC
:100A300009290AD9C568A1F10A0404EB4404A640B7
:100A4000B543A3401D43C56007E0056901EB4104C0
:100A5000A640B543A3401D4305611F23072A09D2C1
:100A6000446B521E02EB820293409C4391400C4324
:100A7000446370BD0D2A09D2046BD21F02EB8202BF
:100A800093409C4391400C43046370BDC46A0D3A8B
:100A900002EB820293409C4391400C43C46270BDC0
:100AA000816841F0804181607047000030B50121CC
:100AB0008DB0084601F05EF801210D02284601F0D4
:100AC0007DF8032002218DF82C000A9100248DF876
:100AD0002F400AA9134800F04DFC0121284601F0DF
:100AE00079F80021284601F075F806942802099447
:100AF000CDE9070406A8FFF753FF8DF804400094E2
:100B00008DF80540029404940120074C8DF81400E0
:100B100069462046FFF764FF01212046FFF735FFB5
:100B20000DB030BD0000024000200140FEE7000093
:100B30000748016811F0450FFBD0054940F2FF500E
:100B4000091D086002482038006800F0080070475E
:100B5000342C01401CB50121084601F00BF804209B
:100B6000009001208DF8040000208DF8060003217C
:100B70008DF80510054C8DF807006946204600F0F9
:100B8000F9FB0421204600F04AFC1CBD0000024095
:100B900010B500F0CDF800F079F8CC2000F0E0F8C6
:100BA000442000F0DDF800F0C3F800F06FF8CC202E
:100BB00000F0D6F8BE2000F0D3F800F093F8044619
:100BC00000F090F8000201B251EA040008D5C043D9
:100BD000401CFFF752FD41EC100B9FED0D1B05E093
:100BE000FFF74BFD41EC100B9FED0B1B51EC100B75
:100BF00053EC112BFFF760FCFFF763FD00EE100ACA
:100C0000F2EE040A064880EE201A80ED001A10BDAC
:100C1000000000000000B03F000000000000E43FC2
:100C20002400002010B5FFF795FF00F081F8BDE823
:100C3000104000F02BB800001CB5042000900020EC
:100C40008DF8040001208DF8070003208DF80500C1
:100C50006946024800F08EFB1CBD00000000024007
:100C60001CB50420009001208DF8040000208DF8B0
:100C700006008DF8070003208DF80500694602483C
:100C800000F078FB1CBD00000000024070B500249D
:100C9000FFF7D2FF124D04E0641CE4B2012005F01E
:100CA000FFFD0421284600F0B1FB10B1642CF3D302
:100CB0000FE0642C0DD2002404E0641CE4B2012097
:100CC00005F0EEFD0421284600F0A0FB18B1F02C41
:100CD00004D3012070BDF02CEFD3FAE7002070BDE3
:100CE0000000024070B500252C46104EFFF7B8FFFB
:100CF0000421304600F091FB0A2005F0D1FDFFF7FA
:100D00009BFF0421304600F081FB01280CD000231A
:100D10002D2005F0C5FDA3402B43641CE4B2DDB2D9
:100D2000082CE3D3284670BD0123F1E70000024000
:100D300010B5FFF795FF094C0421204600F06DFB2C
:100D400040F2EE2005F0ACFD0421204600F067FBE8
:100D5000BDE810400F2005F0A3BD000000000240D8
:100D600070B50546FFF77CFF124E002415F0010F09
:100D70004FEA55054FF0040130460AD000F04DFB14
:100D8000082005F08DFD0421304600F048FB3A2094
:100D900009E000F042FB462005F082FD04213046C8
:100DA00000F03DFB022005F07BFD641CE4B2082C42
:100DB000DCD370BD00000240704700002DE9FC410B
:100DC000114C0746DFF8448020784FF4004680B18C
:100DD00001208DF8040000258DF8065003218DF8C0
:100DE00005108DF8070000966946404600F0C2FAEB
:100DF0002570314640461FB1BDE8FC4100F00FBBF5
:100E0000BDE8FC4100F009BBF000002000040240F6
:100E10002DE9F04F9FB001217A2000F0ABFE0121B7
:100E2000084600F0B3FE01258DF8045000244FF46D
:100E300000408DF80640022600908DF805608DF880
:100E400007506946794800F095FA8DF804604CF235
:100E500033708DF806400327DFF8D4B100908DF889
:100E600005708DF807506946584600F083FA8DF8F2
:100E700004604FF680708DF80640DFF8B89100905E
:100E80008DF805708DF807506946484600F072FAF3
:100E90008DF804608DF80640DFF89CA14FF480586F
:100EA0008DF80570CDF800808DF8075069465046E2
:100EB00000F060FA8DF804608DF806408DF805703A
:100EC0008DF807505D4DCDF800806946284600F04A
:100ED00051FA0C220021584600F088FA0C22012118
:100EE000584600F083FA0C220421584600F07EFA9E
:100EF0000C220521584600F079FA0C2208215846A8
:100F000000F074FA0C220921584600F06FFA0C2206
:100F10000A21584600F06AFA0C220E21584600F0C9
:100F200065FA0C220F21584600F060FA0C220721C6
:100F3000484600F05BFA0C220821484600F056FAB9
:100F40000C220921484600F051FA0C220A21484699
:100F500000F04CFA0C220B21484600F047FA0C2214
:100F60001146484600F042FA0C220D21484600F096
:100F70003DFA0C220E21484600F038FA0C220F21CF
:100F8000484600F033FA0C221146504600F02EFA83
:100F90000C221146284600F029FA0F20CDE9110451
:100FA0001820CDE91304159408201694CDE91740B4
:100FB000CDE919401B941C940620CDE902041D9430
:100FC0001E941020CDE904400894079480020694F2
:100FD000CDE90C40CDE90A48099411A8CDE90E40AD
:100FE00018A8109002A800F061F90121062000F075
:100FF0004DF94FF02040D0F81C1121F00F01C0F83E
:101000001C11D0F81C1121F47061C0F81C11D0F82B
:101010001C1141F00301C0F81C11D0F81C1141F45F
:101020000071C0F81C111FB0BDE8F08F0004024031
:10103000000C024000100240001402400018024060
:101040004FF0D841A1F8800070474FF0D841A1F887
:101050007E00704708B500F0C9FD012000F064FE75
:1010600000F0D4FE0028FDD0002000F053FE4FF425
:10107000A05000F075FE4FF4805000F07BFE07207A
:101080000821009002234FF4A872C80400F082FEE9
:10109000012000F079FE392000F01AFE0028FAD075
:1010A000022000F0A9FE00F02DFE0828FBD1002050
:1010B00000F042FE0121084600F05CFD0121022003
:1010C00000F058FD0121042000F054FD012108200A
:1010D00000F050FD0121102000F04CFD01212020E6
:1010E00000F048FD0121402000F044FD62B608BD3B
:1010F0002DE9F041104C0746DFF8408060784FF44E
:10110000005670B104F1080001210660017100254C
:10111000857103224271C1710146404600F02AF9EF
:101120006570314640461FB1BDE8F04100F077B927
:10113000BDE8F04100F071B9F00000200008024065
:1011400070B50C4D0C4EA87868B105F1080104206B
:10115000086000240C71032048710120C8713046DA
:1011600000F008F9AC703046BDE87040042100F092
:101170004DB90000F0000020000402402DE9F041CC
:10118000104C0746DFF84080E0784FF4006670B1FD
:1011900004F1080001210660017100258571032218
:1011A0004271C1710146404600F0E4F8E5703146F5
:1011B00040461FB1BDE8F04100F031B9BDE8F04153
:1011C00000F02BB9F0000020001402402DE9F0419E
:1011D0000F4C06460F4F207970B104F10800012131
:1011E000016001710025857103224271C1710146C0
:1011F000384600F0BFF825714FF0010138461EB1A6
:10120000BDE8F04100F00BB9BDE8F04100F005B9D0
:10121000F00000200004024070B50B4C0B4E6079CA
:1012200060B104F108010220002508600D7103225D
:101230004A71C871304600F09DF865713046BDE8CE
:101240007040022100F0E2B8F000002000040240EB
:1012500010B50A2000F054F9024890ED020A80ED22
:101260000A0A10BD1800002010B50A2000F048F945
:10127000024890ED020A80ED0B0A10BD1800002014
:101280000149086070470000143C01408000A0F153
:10129000C0400029016802D041F0010101E0024A8A
:1012A0001140016070470000FEFF0F0010B5D0E94B
:1012B00001121143D0E903231A4311434269114338
:1012C00082691143C2691143026A1143426A1143A0
:1012D000826A1143C26A1143026B11430268920091
:1012E000A2F1C04211608168082907D10168890014
:1012F000A1F1C0410A6842F040020A60416BD1E9A5
:10130000002342EA03128B688C891B0243EA0443E0
:101310001A430B8A42EA03520B7D896942EA03624F
:101320000A4301688900A1F1C0414A60C16AB1F570
:10133000804F08D000686FF070418000A0F1C0407D
:10134000C0F8041110BD816BD1E9002342EA0312F9
:101350008B680C8A1B0243EA04531A430B7D89698C
:1013600042EA036200680A438000A0F1C040C0F86E
:10137000042110BDF0B5002201274FF0030C0B68CB
:1013800007FA02F52B40AB422CD1066853000CFA49
:1013900003F4A64306600E79D0F800E09E4046EACA
:1013A0000E0606600E79012E01D0022E12D186683B
:1013B000A64386604E79D0F808E09E4046EA0E06C5
:1013C00086604668AE43466045688E799640B6B200
:1013D00035434560C568A543C560CC799C40C3686A
:1013E0001C43C460521C102AC9D3F0BD4B07DB0E4E
:1013F0009A40C90810B500EB8100016A0F249C4097
:10140000A1430162016A1143016210BD024600203E
:1014100012690A4200D0012070474183704701835E
:10142000704700002DE9F04F344C4FF4A07B254667
:1014300094F80180B5F80A9095F802A0B5F808C0B4
:10144000EF882E79B8F1010FAD89DFF8B0804FF049
:10145000F00EA7EB0C0427D061454DD9B9424BD211
:10146000A84249D9484547D2474694FBFBF43F89F7
:10147000C91B91FBF4F1BAF1010F02D089B2C1F599
:10148000A0711180B8F80C10B8F80A20012EA2EB58
:10149000010494FBFEF2A0EB010027D090FBF2F0D8
:1014A00080B2C0F1F00023E0604525D9B84223D2D4
:1014B000A94221D949451FD2104F94FBFBF43F8923
:1014C000C01B90FBF4F0BAF1010F02D080B2C0F55E
:1014D000A0701080B8F80A20B8F80C00012EA2EB1A
:1014E000000494FBFEF2A1EB0000D7D190FBF2F0D8
:1014F00018800120BDE8F08F0020FBE708010020E4
:101500002DE9F04100242DED028B06462546424F81
:1015100006E000F0A1F83888641C284485B2E4B2E3
:10152000B442F6D3B5FBF6F000EE100ADFED3B0A4D
:10153000B8EE400A20EE200ADFED390A20EE200A3C
:10154000DFED380A87ED0C0A20EE200A10EE100AB3
:10155000FFF7A4F89FED341B53EC112BFFF71EF897
:101560009FED331B53EC112BFFF718F8FFF7A9F889
:1015700000EE900A4FF08041C7ED080A97ED050A8A
:1015800020EE800A10EE100A87ED090A884202DD7B
:1015900097ED070A08E010EE100A884202DD97ED89
:1015A000050A03E097ED060A87ED050A20EE808A1A
:1015B000F868FFF773F89FED201B53EC112BFEF733
:1015C00075FF9FED1F1B53EC112BFEF775FF9FED71
:1015D0001E1B53EC112BFEF7C8FEFFF772F800EE4E
:1015E000100A87ED040AC8EE000AC7ED020AF5EEFC
:1015F000C00AF1EE10FA03D89FED150A87ED020A32
:101600001449B868884203DDB3EE040A87ED020A84
:10161000BDEC028BBDE8F08118000020000080398D
:1016200000404E4500007A440000000000A08940C0
:101630000000000000006940000000000000394088
:101640008B6CE7FBA9F1923F000000000000F03F27
:10165000000000000000A04110B50B4C0122072340
:1016600011462046FFF7E2F92046FFF719FA02215A
:101670002046FFF7AEF90028F9D02046FFF7A6F97B
:101680000249088010BD0000002001401800002021
:10169000FEE741F2883303E01946491E89B2FCD2C5
:1016A000401EC0B2F8D270472DE9F04116468A19A3
:1016B0001F46521E93B2C0F5A0708219521E92B2FC
:1016C00080B200F011F800250AE0002404E038465A
:1016D000FFF7B6FC641CA4B2B442F8D36D1CADB2E3
:1016E000B542F2D3BDE8F0812DE9F04107461C4632
:1016F00015460E462A20FFF7A8FC300AFFF7A0FC8B
:10170000F0B2FFF79DFC200AFFF79AFCE0B2FFF76A
:1017100097FC2B20FFF799FC380AFFF791FCF8B2F1
:10172000FFF78EFC280AFFF78BFCE8B2FFF788FC76
:10173000BDE8F0412C20FFF788BC10B5FFF768FB2F
:10174000CF20FFF782FC0020FFF77AFCC120FFF7D3
:1017500077FC3020FFF774FCED20FFF776FC642067
:10176000FFF76EFC0320FFF76BFC1220FFF768FC0D
:101770008120FFF765FCE820FFF767FC8520FFF775
:101780005FFC1020FFF75CFC7A20FFF759FCCB20B0
:10179000FFF75BFC3920FFF753FC2C20FFF750FCD0
:1017A0000020FFF74DFC3420FFF74AFC0220FFF732
:1017B00047FCF720FFF749FC2020FFF741FCEA2017
:1017C000FFF743FC0020FFF73BFC0020FFF738FC4D
:1017D000C020FFF73AFC1B20FFF732FCC120FFF7C7
:1017E00034FC0120FFF72CFCC520FFF72EFC302035
:1017F000FFF726FC3020FFF723FCC720FFF725FC6E
:10180000B720FFF71DFC3620FFF71FFC4820FFF72D
:1018100017FC3A20FFF719FC5520FFF711FCB12007
:10182000FFF713FC0020FFF70BFC1A20FFF708FC62
:10183000B620FFF70AFC0A20FFF702FCA220FFF700
:10184000FFFBF220FFF701FC0020FFF7F9FB262049
:10185000FFF7FBFB0120FFF7F3FBE020FFF7F5FBB1
:101860000F20FFF7EDFB2A20FFF7EAFB2820FFF708
:10187000E7FB0820FFF7E4FB0E20FFF7E1FB082061
:10188000FFF7DEFB5420FFF7DBFBA920FFF7D8FBB7
:101890004320FFF7D5FB0A20FFF7D2FB0F20FFF70D
:1018A000CFFB0020FFF7CCFB0020FFF7C9FB002097
:1018B000FFF7C6FB0020FFF7C3FBE120FFF7C5FBE6
:1018C0000020FFF7BDFB1520FFF7BAFB1720FFF73D
:1018D000B7FB0720FFF7B4FB1120FFF7B1FB062091
:1018E000FFF7AEFB2B20FFF7ABFB5620FFF7A8FB63
:1018F0003C20FFF7A5FB0520FFF7A2FB1020FFF718
:101900009FFB0F20FFF79CFB3F20FFF799FB3F2039
:10191000FFF796FB0F20FFF793FB2B20FFF795FBBC
:101920000020FFF78DFB0020FFF78AFB0120FFF767
:1019300087FB3F20FFF784FB2A20FFF786FB002070
:10194000FFF77EFB0020FFF77BFB0020FFF778FB13
:10195000EF20FFF775FB1120FFF777FB7820FFF7EB
:1019600098FE2920FFF771FB3620FFF76EFBC92098
:10197000FFF766FBBDE810400120FFF71FBA00002B
:10198000064A28B1012807D108211046FFF747BDB4
:1019900008211046FFF741BD7047000000000240DB
:1019A0001CB50121084600F0E5F808200090012050
:1019B0008DF8040000208DF8060003208DF8050046
:1019C0000220064C8DF8070069462046FFF7D2FC3E
:1019D00008212046FFF721FD1CBD00000000024049
:1019E000064A28B1012807D120211046FFF717BD6C
:1019F00020211046FFF711BD704700000000024093
:101A00001CB50121084600F0B5F820200090012007
:101A10008DF8040000208DF8060003208DF80500E5
:101A20000220064C8DF8070069462046FFF7A2FC0D
:101A300020212046FFF7F1FC1CBD00000000024001
:101A40000948022140F65B72417001218170C28019
:101A50004FF4B4720281C170017140F64E71418140
:101A60009E2181817047000008010020064A28B1AC
:101A7000012807D110211046FFF7D1BC10211046D4
:101A8000FFF7CBBC70470000000002401CB50121ED
:101A9000084600F06FF81020009001208DF8040037
:101AA00000208DF8060003208DF805000220064C6A
:101AB0008DF8070069462046FFF75CFC10212046A0
:101AC000FFF7ABFC1CBD000000000240FEE73EB586
:101AD000012141F6FF74080700F064F8012000F0CE
:101AE00043F8002000F038FA45F25005A8422BD008
:101AF000012000F027F901E0641CA4B2412000F0AD
:101B0000E7F80028F8D00CB34FF4807000F05CF9CF
:101B1000012000F053F97F200190FF200290002067
:101B20000090684600F0F0F90023382209211320C4
:101B300000F0C6FA182206230321104600F0B2FA7C
:101B40002946002000F002FB00203EBD01203EBDE2
:101B500070470000024908430249086070470000CE
:101B60000000FA050CED00E0014908627047000032
:101B700000000E42044A0029116801D0014300E030
:101B8000814311607047000030380240044A002948
:101B9000116801D0014300E08143116070470000EB
:101BA00038380240044A0029116801D0014300E09E
:101BB000814311607047000040380240044A002908
:101BC000116801D0014300E08143116070470000BB
:101BD00044380240044A0029116801D0014300E062
:101BE00081431160704700002438024010480168AA
:101BF00041F0010101600E4A0021083211600268C3
:101C00000C4B1A400260031D0B4A1A60084B0B4A2A
:101C100084331A60084A103A1B1D1A60026822F4C5
:101C20008022026002480C300160181D016070477C
:101C300000380240FFFFF6EA103000240030002098
:101C400070B5204B1968204C11F00C0104D06610BF
:101C5000042903D0082903D004601BE0066019E0C2
:101C6000184A121F1168C1F38055116801F03F0135
:101C700015B1B6FBF1F101E0B4FBF1F114681268A3
:101C8000C4F388146143C2F30142521C5200B1FBF9
:101C9000F2F1016019680F2202EA11110B4A545C3B
:101CA0000168E14041601C68072505EA9424145D41
:101CB00021FA04F484601B6805EA5333D25CD140F6
:101CC000C16070BD083802400024F4004F000020BD
:101CD00002460020510901290BD002290CD00849E5
:101CE000096802F01F02012393400B4200D001203B
:101CF000704703497439F3E70149091FF0E7000011
:101D0000743802400248006800F00C007047000080
:101D100008380240034A116821F0F00101431160C4
:101D20007047000008380240024900220A7008701B
:101D30007047000002380240014908607047000007
:101D400000004742054900220A700A70012802D0AB
:101D5000042801D105200870704700007038024047
:101D6000034A116821F4E0510143116070470000FB
:101D700008380240034A116821F4604141EAC0007A
:101D8000106070470838024001490866704700003B
:101D90000000474241EA82115A0810B5054B029CE7
:101DA00003EB02421143014341EA04600249086027
:101DB00010BD00000000FFFF043802400149086028
:101DC000704700003C0E4742C0F30121032907D1B0
:101DD000074B1968074A21F4F81102400A431A60B8
:101DE000034968310A68C0F30B0002430A60704778
:101DF00008380240FFFCFF0F034A116821F003017D
:101E000001431160704700000838024018B50020F7
:101E10004FF4A04400903120FFF75AFF0099491C6D
:101E20000091A14201D00028F5D03120FFF750FFEA
:101E3000002800D0012018BD10B54FF48074204652
:101E400000F054F8012802D1204600F01BF8BDE84C
:101E500010404FF40030FFF713BA010901EB810184
:101E600000F00F0000EB4100C0B27047002103E01A
:101E7000491C0A38C9B2C0B20A28F9D2090740EA97
:101E80001160704780B240F08000C143034802688F
:101E900002F0800211430160704700000C280040EE
:101EA00008B50D49002000900868400612D44FF094
:101EB000FF3008608B130868009A00F04000521C45
:101EC00000929A4201D00028F5D00868400601D45B
:101ED000002008BD012008BD0C2800400248016810
:101EE00021F08001016070470C280040044902463F
:101EF00000200968034B1940114200D001207047AF
:101F00000C2800407F3F010070B5124D04460026AA
:101F1000CA20286053202860FFF7C2FFA8B10D48EF
:101F20001C38016821F040010160016822681143FA
:101F300001600848A168143801600168A28841EA7C
:101F400002410160FFF7CAFF0126FF2028603046EA
:101F500070BD00002428004008B5034901EB800053
:101F60000090006808BD00005028004070B50C4685
:101F70000026010060780FD0FFF76FFFA078FFF711
:101F80006CFFA078E17840EA014560782178000292
:101F900040EA4130054315E0C10603D520F01000AA
:101FA0000A306070E078FFF761FF05046078FFF7A2
:101FB0005DFF45EA0025A078FFF758FF054320782C
:101FC00045EA40350D4CCA20206053202060FFF7C1
:101FD00067FF78B10A480540084820380560FFF7D8
:101FE0007DFF06481C380068800602D400F088F89F
:101FF00000B10126FF202060304670BD242800403B
:102000003FFFFF002DE9F0410C460026234F010061
:102010002078396832464FEA416104D0002930DA2D
:10202000FFF71BFF2EE0002900DBE270FFF71EFF29
:1020300005046078FFF71AFF45EA0025A078FFF74E
:1020400015FF0543E07845EA0045144CCA201C34CE
:10205000206053202060FFF723FF68B1104805403F
:102060000E4808380560FFF739FF3868800602D44B
:1020700000F046F800B10126FF2020603046BDE8A0
:10208000F081E270A078217840EA01456078E1783B
:10209000000240EA01400543D7E70000082800405D
:1020A0007F7F7F0008B58DF802208DF801108DF834
:1020B00000308DF8030069460020FFF757FF08BD88
:1020C00008B58DF800008DF801108DF802208DF80C
:1020D000033069460020FFF795FF08BD10B54FF4A7
:1020E00080642046FFF702FF012802D12046FFF757
:1020F000C9FEBDE810404FF48000FFF7C1B80000F2
:1021000018B50020104B0090CA20186053201860AA
:102110000D491839086820F0A00008604FF4003419
:102120000868009A00F02000521C0092A24201D0E0
:102130000028F5D00868800601D5012000E00020C5
:10214000FF21196018BD00002428004008B5034A8B
:1021500002EB80000090016008BD000050280040A4
:102160000149086070470000382C0140034A0146CD
:10217000002012680A4200D001207047342C014030
:1021800000F020B8044A0029116801D0014300E0A2
:1021900081431160704700003C2C014010B5084A93
:1021A00001681160131D1968D0E901242243D0E9A8
:1021B000034004436FF30A0122430A431A6010BD2F
:1021C000082C014070B54FF480752846FFF7CEFF0C
:1021D000284CC8B1E168002001290ED126490C2203
:1021E000C1E900024022C1E902201001086108464D
:1021F000FFF7D4FF0C20FEF79BFC20702846FFF76A
:10220000AFFF012020612EE00220FFF7AFFF20B1D9
:102210000220FFF7A5FF022024E00820FFF7A6FF19
:1022200020B10820FFF79CFF04201BE02020FFF7CF
:102230009DFF20B12020FFF793FF062012E0102021
:10224000FFF794FF20B11020FFF78AFF052009E077
:102250004FF400752846FFF789FF20B12846FFF7A5
:102260007FFF0720207000214CF23A30FFF78AFFF1
:10227000207870BD0400002074040020064A28B1B4
:10228000012807D140211046FFF7C9B84021104668
:10229000FFF7C3B870470000000002401CB50121E1
:1022A0000846FFF767FC4020009001208DF80400ED
:1022B00000208DF8060003208DF805000220064C52
:1022C0008DF8070069462046FFF754F84021204664
:1022D000FFF7A3F81CBD000000000240064A28B129
:1022E000012807D180211046FFF799B880211046B8
:1022F000FFF793B870470000000002401CB50121B1
:102300000846FFF737FC8020009001208DF804007C
:1023100000208DF8060003208DF805000220064CF1
:102320008DF8070069462046FFF724F880212046F3
:10233000FFF773F81CBD0000000002400CB500223E
:10234000274900920192086840F4803008604FF4F9
:10235000A043086800F4003001900098401C0090F1
:10236000019810B900989842F3D10868800334D5D9
:10237000012001901A484030026842F08052026009
:102380001848026842F4404202601548083002686A
:102390000260026842F400420260026842F4A05205
:1023A0000260031F104A1A600A6842F080720A60D5
:1023B0000A689201FCD50D4940F205720A60016875
:1023C00021F003010160016841F002010160016830
:1023D000C1F381010229FAD10CBD01920CBD0000AC
:1023E000003802400070004008644007003C024092
:1023F0000A484FF47A710068B0FBF1F0401EB0F16A
:10240000807F0AD24FF0E0214861054AF02082F82F
:10241000140D0020886107200861704760000020CB
:102420000FE000E010B5502080F31188BFF34F8F0C
:10243000BFF36F8F27F00EFD18B104494FF08050A5
:102440000860002080F3118810BD000004ED00E05A
:10245000124810B5016841F470010160104801682C
:1024600041F0010101600E4A00210832116002684A
:102470000C4B1A400260031D0B4A1A60026822F4DA
:102480008022026006480C300160FFF757FF0349C5
:102490004FF000608039086010BD000088ED00E05A
:1024A00000380240FFFFF6FE1030002410B50D4C3E
:1024B00094ED0B0AD4ED0A0A30EE600A10EE100A11
:1024C000FEF7ECF89FED081B53EC112BFDF7F4FF22
:1024D0009FED071B53EC112BFDF747FFFEF7F1F8BB
:1024E000606010BD18000020B81E85EB51C85D402B
:1024F000A245B6F3FD944D407CB50D4D04460E4605
:10250000287818B1FFF79CFA00202870694601A8C6
:1025100000F010F833462246BDF80010BDF8040064
:10252000FEF780FF002802D02088208001207CBD9B
:102530000801002070B505460C460020FEF7D8FDC6
:10254000902000F044F80120FEF740FE00BF00BFDD
:1025500000BF0020FEF73AFE00BF00BF00BF00F042
:1025600018F82080D02000F032F80120FEF72EFE6F
:1025700000BF00BF00BF0020FEF728FE00BF00BF65
:1025800000BF00F006F82880BDE870400120FEF78B
:10259000AFBD70B5002425464FF6FF7606EA440429
:1025A0000120FEF713FE00BF00BF00BF0020FEF7B2
:1025B0000DFE00BF00BF00BFFEF7C2FD08B1641CE6
:1025C000A4B26D1CEDB20C2DE8D3204670BD70B5E1
:1025D00005460020FEF7FAFD0024280601D501205B
:1025E00000E00020FEF7CAFD6806050E0020FEF799
:1025F000EDFD00BF00BF00BF0120FEF7E7FD00BFFB
:1026000000BF00BF641CE4B2082CE6D370BD00001C
:1026100070B586B001211020FFF7D0FA204E0722B6
:1026200009213046FEF7E2FE07220A213046FEF776
:10263000DDFE022570158DF80450002400908DF801
:1026400006408DF8055001208DF807006946304698
:10265000FEF790FE68028DF8045000908DF805504A
:102660008DF8074069463046FEF784FE4FF4165059
:10267000ADF80C400290ADF80E40ADF81040ADF84A
:1026800014400C20074CADF8120002A9204600F0BF
:102690001DF80121204600F007F806B070BD0000CB
:1026A00000000240001001400029818902D041F45D
:1026B000005101E021F40051818170470246002061
:1026C00012880A4200D00120704700007FB50446FE
:1026D000008A0D46C98820F4405001432182A08918
:1026E00041F20C618843A9882A8911436A8902430F
:1026F0001143A181A08A20F44071A8890843A082D7
:102700006846FFF79DFA1A48844202D0194884426D
:1027100001D1039800E00298A189090400EBC001EF
:1027200001EB0010296801D5490000E08900B0FBE9
:10273000F1F06422B0FBF2F109010B096FF018050A
:102740006B4300EB8300A3891D044FF0320306D5D1
:1027500003EBC000B0FBF2F000F0070005E003EB74
:102760000010B0FBF2F000F00F00084320817FBDA5
:102770000010014000140140C1F30801818070473E
:10278000FEE700000FB4054B10B503A9044A0298F8
:1027900001F0D8FB10BC5DF814FB000091E50008C7
:1027A000480300200FB4084B10B504A902AA0398EF
:1027B00001F0C8FB044602A9002001F046FF2046B4
:1027C00010BC5DF814FB00004B46000802E008C88E
:1027D000121F08C1002AFAD170477047002001E09B
:1027E00001C1121F002AFBD1704770B504460025B5
:1027F0006FF02F0608E02068411C2160007805EB8F
:10280000850106EB410145182068007800F0C6F804
:102810000028F0D1284670BD2DE9FF5F82B000216D
:10282000DDE90430020DDDF840B0034318D044F672
:102830001050A2F2FF3242431514119801281FD004
:10284000A5EB0B00401C5FEA000A4FF000064E4F5C
:10285000DFF83891B046504615D5CAF1000413E0B0
:10286000119801244AA3012801D16FEA0B010298B3
:10287000119AC0E90031C0E9024206B0BDE8F09FFC
:10288000CBF10000DFE704460021404A491842EB43
:102890000450CDE9001012E0E00707D032463B4675
:1028A00040464946FDF708FE8046894632463B468B
:1028B00010461946FDF700FE06460F466410002C30
:1028C000EAD1DDE90401DDE90023BAF1000F06DAFF
:1028D000FDF7F2FD42464B46FDF7EEFD05E0FDF744
:1028E0005DFE42464B46FDF759FE04460E46002269
:1028F000284BFDF7F5FF03D84FF0FF30014607E006
:102900000022254B20463146FDF72FFDFDF7D0FF75
:10291000102409E0002C0ADB0A220023FDF7B2FC98
:10292000039B30321A55641E50EA0102F2D1641C36
:10293000039AC4F111031444119A012A03D001220D
:1029400008430DD10AE0084304D000204FF0110BDA
:10295000119072E7A3EB0B056D1E0DE05B4504DDE6
:102960004FF0000205F1010504E003DA4FF0000228
:10297000A5F10105002AECD002981199C0E90231B5
:10298000C0E9004579E70000000014400000F03F76
:10299000300000000000F0430000E03F303809281C
:1029A00001D80120704700207047000010B5442175
:1029B000074800F0C1FD00221E2106481EF034FE2B
:1029C000054CA06002F0B4F90020207010BD00009A
:1029D00000930020E54D00088401002070B5B1F996
:1029E0000040B2F900309C4200DD23460380B1F97B
:1029F0000240B2F90250AC4200DC2C464480B1F9EE
:102A00000450B2F90460B54200DB35468580B1F967
:102A10000610B2F90620914200DB1146C180012068
:102A2000AB4201DC8C4200DD002070BDF8B50D46E4
:102A30000446B0F90000B1F900101646884247DBA1
:102A4000B4F90210B5F90220914241DBB4F9041047
:102A5000B5F9042091423BDCB4F90610B5F9062023
:102A6000914235DC96B3ADF800006088ADF8020005
:102A700032466946284600F099F8002827D0A088F9
:102A8000ADF800006088ADF802003246694628467D
:102A900000F08CF800281AD02088ADF80000E088FB
:102AA000ADF8020032466946284600F07FF800285B
:102AB0000DD0A088ADF80000E088ADF802003246E5
:102AC0006946284600F072F8002800D00120F8BDC1
:102AD0000020F8BDB0F90020B1F904309A4213DCAF
:102AE000B0F90420B1F900309A420DDBB0F90220B0
:102AF000B1F906309A4207DCB0F90600B1F90210CC
:102B0000884201DB0120704700207047F8B50D4670
:102B10000446B0F90400B1F900101646884243DBC0
:102B2000B4F90600B5F9021088423DDBB4F90000A3
:102B3000B5F90410884237DCB4F90210B5F9062063
:102B4000914231DC76B3ADF800006088ADF8020048
:102B500032466946284600F029F818BBA088ADF82F
:102B600000006088ADF8020032466946284600F051
:102B70001DF8B8B92088ADF80000E088ADF8020073
:102B800032466946284600F011F858B9A088ADF8D9
:102B90000000E088ADF8020032466946284600F0A1
:102BA00005F808B10020F8BD0120F8BD2DE9FC4171
:102BB00005460F46B1F90000B5F9001014468842E9
:102BC0003BDBB5F90410884237DCB7F90200B5F9F0
:102BD0000210884231DBB5F9061088422DDC002C4A
:102BE00076DD28460FF07EF800EBD07046102846C0
:102BF0000FF022F800EBD0704010864200DA304629
:102C0000844200DD04462888ADF8000028880022B0
:102C10002044ADF804006888ADF8020068883946A1
:102C20002044ADF806006846FFF7C0FF40B1BDF88C
:102C300004002044ADF804003FE00020BDE8FC8122
:102C4000E8880022001BADF80200E888ADF8060015
:102C500039466846FFF7AAFF28B1BDF804002044B2
:102C6000ADF8040011E0A8880022001BADF80000B8
:102C7000A888ADF8040039466846FFF797FF50B1C1
:102C8000BDF80000001BADF80000BDF80200001BFD
:102C9000ADF8020016E06888ADF8020068880022EE
:102CA0002044ADF8060039466846FFF77FFF70B153
:102CB000BDF80000001BADF80000BDF80600204480
:102CC000ADF80600394668461BF0B8FFB6E7FFE7E7
:102CD0000120B3E710B5B1F90030B2F90040A342CA
:102CE00000DB23460380B1F90230B2F90240A3426F
:102CF00000DB23464380B1F90430B2F90440A3421B
:102D000000DC23468380B1F90610B2F90620914217
:102D100000DC1146C18010BDF8B507461EF020FC4E
:102D20000025264C0646009537B1F86860603846A5
:102D30001EF048FD606802E011F058F9606000691B
:102D40001BF07AFE6068406908B11BF075FE606890
:102D5000C0691BF071FE6068006A1BF06DFE606860
:102D6000016941B31CF012F820F05CFD6068B0F816
:102D70005011C1B14FF48071303017F033FB6068EF
:102D8000202100F5987017F02DFB6068A0F85051D5
:102D900030461EF0DFFB009060680068436A13B1A4
:102DA00022680099984717F093F900F033F8BDE8CE
:102DB000F84000F005B8A0F85051F8BD48010020D7
:102DC00070B5094E0024C4EBC40556F8250008B1BF
:102DD00017F0F2F906EB85001C2117F003FB641CC9
:102DE000E4B2042CEFD370BDDC930020084949689D
:102DF0000AE04A68824202D00A68824203D10A7E0F
:102E000042F001020A7649690029F2D170470000B8
:102E10001C010020704700000421014800F08CBB19
:102E2000F49200202021014800F086BB0C93002082
:102E30002DE9FF410446DDE90A571E004FF000006E
:102E400002D1B5F5807F2BD0039001900290ADF8B0
:102E50000C100090ADF80410ADF80A20ADF80E206B
:102E60003B462A46314668461BF04AFE3B462A4608
:102E7000314601A81BF044FE3B462A46314602A8D3
:102E80001BF03EFE3B462A46314603A81BF038FEA7
:102E9000BDF90030BDF90420934209DA1D4608E06F
:102EA0002080491E6080A180521EE280BDE8FF8123
:102EB0001546BDF90800BDF90C10884201DA064636
:102EC00000E00E46B54205DA934201DA184604E006
:102ED000104602E0884200DB0846801E2080BDF9D3
:102EE0000030BDF90400834201DD1D4600E00546C7
:102EF000BDF90820BDF90C108A4201DD164600E03C
:102F00000E46B54203DD834206DD184604E08A42E0
:102F100001DD104600E00846801CA080BDF90230AB
:102F2000BDF90620934201DA1D4600E01546BDF9C1
:102F30000A10BDF90E00814201DA0E4600E0064695
:102F4000B54205DA934201DA184604E0104602E081
:102F5000814200DA0846801E6080BDF90230BDF96A
:102F60000620934201DD1D4600E01546BDF90A101A
:102F7000BDF90E00814201DD0E4600E00646B54275
:102F800005DD934201DD184604E0104602E081426F
:102F900000DD0846801CE08088E700002DE9F04154
:102FA00015460E460746114C1EF0DAFA80462B46AF
:102FB00032463946204615F0ABF920B10020A06218
:102FC000E06950B110E02C21204617F00BFA4FF0C9
:102FD0000040A0620020BDE8F08140461EF0BAFA31
:102FE000E06108B90120E0612046F4E73093002059
:102FF00010B51421074800F09FFA15F04FF940B1C1
:103000000549016005494160054981600549C16084
:1030100010BDFEE718930020CD7C01084180010817
:10302000BD810108997C010870B50D460446102148
:10303000284617F0D7F920680078012804D0022824
:1030400007D0042807D008E0A08A2880E08A68809A
:1030500003E0E06800E00A20686020684268002A17
:1030600003D02946BDE87040104770BD2DE9FE43EE
:103070000446808A10B9E08A002874D0D4F82C80E5
:103080005FEA080010D120460AF074FD5FEA0008EC
:1030900069D020460DF0F4F800220921404614F0D2
:1030A00057F8607880075ED44FF4807900274D464A
:1030B00046460021304619F0B8FD384407B20021D9
:1030C000304619F0D0FDC11700EB1160001210FB63
:1030D00005F005B2304618F0C5FD0600E9D10FB97C
:1030E0004D450CD0784201B24FF4803090FBF5F0A2
:1030F00002B26B4604F1140000961BF001FDADF81E
:103100000860ADF8046094F8400000F00F00032858
:10311000404616D018F0F8FE0546404618F0AEFDC1
:1031200003460C200090B4F916102A4640460AF0D7
:10313000BFF8ADF80400404618F0F2FDC10713D007
:1031400018E018F075FE0546404618F011FE0246DC
:1031500003200090B4F914102B4640460AF0A8F85A
:10316000ADF80800E7E736E0BDF90810002901DDF9
:10317000ADF80860810705D4BDF90810002901DA0F
:10318000ADF80860410705D4BDF90410002901DD40
:10319000ADF80460000705D4BDF90400002801DA89
:1031A000ADF8046001AA02A9204621F04FFABDF94A
:1031B0000420BDF90810404600F059FA60788007F5
:1031C00009D4208BBDF8081008442083608BBDF81B
:1031D000041008446083BDE8FE832DE9FC5F0446CB
:1031E000C06A5FEA000B71D094F8400000076DD010
:1031F00015F020FB019000684021457E584619F0EB
:103200005BFE4FF0000818B9A4F81E80A4F81C80DB
:10321000584618F06BFE8246584618F06EFE064679
:1032200094F840004FF0640900F00F000C2802D021
:1032300003284CD09AE0A4F81C8056B1B4F91E5073
:10324000002715F0F7FA00684946407EC0F1640097
:1032500022E0E08BC5F1640110FB01F191FBF9F074
:10326000E083584618F00AFD0546584618F04CFE13
:1032700002460C200090B4F91E102B4658460AF066
:1032800017F8E083024600231EE07A1917B210FBFC
:1032900005F292FBF1F215B2002DF6D1ADF80070F7
:1032A000A4F81E806A460021204621F0CFF941F69D
:1032B000FF72BDF90030514258460AF0F1FDBDF8E9
:1032C00000100123084402B200214CE09AE0A4F867
:1032D0001E80BAF1000F0AD0B4F91C50002715F077
:1032E000A9FA00684946407EC0F1640022E0A08B44
:1032F000C5F1640110FB01F191FBF9F0A083584680
:1033000018F036FD0546584618F092FD0346032096
:103310000090B4F91C102A46584609F0C9FFA08352
:10332000014600231EE07A1917B210FB05F292FB4A
:10333000F1F215B2002DF6D1ADF80070A4F81C80A2
:1033400000226946204621F081F941F6FF72BDF95D
:103350000030514258460AF021FDBDF8001001230B
:10336000084401B2002258461AF0BEFEA08B002885
:1033700048D1E08B002845D1C6B9584618F0C4FDA5
:103380000546584618F07AFC002D06DC00280DDDB5
:10339000002D02DA01232A4604E0002806DA012380
:1033A000404202B2002158461AF09EFEBAF1000FC8
:1033B00019D1584618F0DCFC0546584618F038FD7F
:1033C000002D07DC00280EDD002D03DA012300228A
:1033D000294605E0002806DA01230022404201B216
:1033E00058461AF081FE0A215846019A13F0B0FEA1
:1033F0006078800706D414F8400F20F00F0020708A
:1034000044F8148CBDE8FC9F7FB50D46040003D141
:1034100010F0ECFD04002CD010F05CFE002828D049
:1034200094F82800400724D4002605B3ADF80060C6
:10343000ADF80260204610F0F1FD401EADF804002A
:10344000204610F031FE401EADF806006A462946BF
:1034500002A8FFF7C3FA00280BD02068017C890777
:1034600008D5DDE90001C4E90C01012029E0A4F838
:1034700050617FBD82690AB102A9904700250AE028
:1034800004EBC501002202A83031FFF7CFFA002873
:10349000EFD16D1CADB2B4F85001A842F0D880B2A3
:1034A000202804D204EBC00002A9303004E0A4F8C4
:1034B000506104F1300069460EF040FBB4F8500151
:1034C000401CA4F8500160680028D2D01EF086F994
:1034D0007FBD70B5054600F012F804460CE02146A9
:1034E000284600F01EF806462146284600F071F8EE
:1034F000204616F061FE3446002CF0D170BD002845
:1035000000D04068704700B503460022FFF7F7FF80
:1035100003E01846521C00F004F80100F9D11046EF
:1035200000BD0068091D405870470068405870474A
:10353000002800D08068704700224260C91C21F03A
:10354000030182600160704770B50446006808306E
:1035500016F0A6FD050013D00146002220461FF0FC
:103560008AF92946204662681FF07CF9616819B122
:103570002A4620461FF07FF96560A06800B9A56063
:10358000284670BD70B504460068083016F088FD06
:10359000050013D00146002220461FF063F929469A
:1035A0002046A2681FF067F9A16819B12A46204693
:1035B0001FF058F9A560606800B96560284670BDC5
:1035C00028B1416809B9806808B10020704701201E
:1035D000704770B504000DD0FFF791FF00228842BC
:1035E000204608D1FFF79DFF606010B10022014620
:1035F0001EE0A26070BDFFF79BFF88422068084470
:103600000AD10168A16029B12046BDE870400022BE
:103610001FF028B9626070BD05682046FFF781FF82
:1036200006460246294620461FF01CF92A46314626
:103630002046BDE870401FF01EB910B50446006872
:1036400082680AB12146904720680068002801D0AE
:103650002060F5E710BD8068002801D0B0F91600A1
:1036600070478068002801D0807E8009704770B55F
:10367000154606460C4651EA05001AD0304617F0AA
:1036800005FCB06801232A46018A21440182B06802
:10369000418A294441822146304619F087FF0022A1
:1036A0000B21304613F054FD012803D1304619F0A8
:1036B000D7FE012070BD77B581B00E46050017D04A
:1036C000612219F0E3F9040012D0206880B1284685
:1036D0003146622219F0DAF910F0FF0208D02368AF
:1036E0002046039998470090BDF80000ADF80C0003
:1036F000039804B070BD00002DE9F047054692B074
:10370000408C1A9C40F00400688490462A849946B4
:103710008A462289284619F0B9F90646A5F820906C
:1037200022895146284619F0B1F90746688CBE42F5
:1037300020F00400688403D13104B1EB074F68D056
:10374000A5F8208022895146284619F09FF906469F
:103750008046A5F82090514628460BF0F3FD2189BC
:10376000006832461CF0A4FD20890B2823D147F6BF
:10377000FF794E4501D04F451DD1284619F056FB23
:1037800000EBD0704610284618F031FA00EBD070EC
:103790004010C84506D1711C431C994200DA00E074
:1037A000194688464F4506D1711C421C914201DAE8
:1037B0000F4600E017461948FFF7C6FE06002BD05B
:1037C0003560C6E903872089B0806846C6F808A03E
:1037D0000DF0C4FC1248FF21CDE9006011480290B1
:1037E0001148039000200890CDE9090120880B9032
:1037F00060889DF8421040420C90E06807900020DD
:1038000060F300018DF842102069069068460DF0C3
:103810001DFD12B0BDE8F087FEE7000024930020F4
:10382000D1890208BD8B0208158B020814210148BA
:10383000FFF782BE249300202DE9F84F0024904624
:103840008946064625464FF0040AE4E0F1680AEB93
:10385000C500085881017AD480B230EA090111D03C
:10386000002130EA08000FD0002081426FD0F068BC
:103870006A46102150F8357038461CF07BFA002853
:1038800071D103E00121ECE70120EEE76A46112146
:1038900038461CF06FFA002865D16A461221384676
:1038A0001CF068FA00285ED16A46132138461CF0E5
:1038B00061FA002857D16A46152138461CF05AFA99
:1038C000002850D16A46142138461CF053FAE8BB50
:1038D0006A460A2138461CF04DFAB8BB6A466A218E
:1038E00038461CF047FA88BB6A466B2138461CF004
:1038F00041FA58BB6A46012138461CF03BFA28BB06
:103900006A46042138461CF035FAF8B96A460221A5
:1039100038461CF02FFAC8B96A46032138461CF015
:1039200029FA98B96A46052138461CF023FA68B985
:103930006A46062138461CF01DFA38B96A4632211B
:1039400038461CF017FA08B96A4601E00BE061E05E
:103950006D2138461CF00EFA28B96A466C213846AB
:103960001CF008FA10B10320BDE8F88F6A46682100
:1039700038461CF0FFF9E8BB6A46692138461CF05E
:10398000F9F9B8BB6A466D2138461CF0F3F988BBDB
:103990006A466C2138461CF0EDF958BB6A4637215F
:1039A00038461CF0E7F928BB6A46382138461CF037
:1039B000E1F9F8B96A46352138461CF0DBF9C8B997
:1039C0006A46402138461CF0D5F998B96A46452127
:1039D00038461CF0CFF968B96A46412138461CF0D8
:1039E000C9F938B96A46422138461CF0C3F908B90A
:1039F0006A4600E00AE0432138461CF0BBF928B9CA
:103A00006A46492138461CF0B5F908B1022401E0A4
:103A100004B901246D1C708CC0F3C500A8423FF6A8
:103A200015AF2046A0E7000001484068704700003D
:103A3000480100207047C0F30410072800D9072070
:103A400070470000A0F57F41FF3905D0002804D061
:103A5000702803D208490AE01F20704707497038D0
:103A600080B2096829B1064A5268904201D2085CC6
:103A70007047002070470000E4DA0208B00100201F
:103A8000C401002010B518210348FFF755FD034974
:103A90000120087010BD0000D0920020CC01002051
:103AA0002DE9F04190460D46040016D0FCF73FFC8E
:103AB00029460B4D06462046AA6890470746AA6845
:103AC000E0194146904701463846721A03E0431810
:103AD000E35C2354401C8242F9D2BDE8F08100002F
:103AE000E00100202DE9F041094C90460E46626845
:103AF0001D46074619469047306020B12868626825
:103B0000384400219047C8F80000BDE8F08100006B
:103B1000E00100202DE9F04F87B08A46DDE910581A
:103B20001F4693460446002105B129805CB12078E8
:103B3000002809D0BAF1000F05D0002618F0060FB2
:103B400015D0002004E0002007B0BDE8F08F401C35
:103B5000215C0A2904D00D2902D00029F7D100E008
:103B6000401C002DF0D04FF0FF312980ECE75FEAD8
:103B7000887001D541F6FF77894608468DF8101008
:103B8000059125E00598CDF8189058B3002104ABB5
:103B9000CDE902310DF1180CCDE9008C20443B46F3
:103BA0005A4651461DF064FF06997A1A314417B2FD
:103BB0000EB288B105990844059021780A290BD0E6
:103BC0000D2909D0205C0A280ED00D280CD00598AC
:103BD000205C08B1002FD5DC059848B105B12E80D6
:103BE0000598B1E70121D2E70598401C0590F3E75D
:103BF000064A05A92046526890470146002DEFD09D
:103C00000022504613F0B4FB06B2E8E7E0010020C2
:103C10002DE9F0411746884606001ED0002F1CD023
:103C2000FCF785FB04463846FCF781FB050014D001
:103C30000B4A2C444146926830469047411903E0B4
:103C4000621BB25C3255641EA142F9D930442A4647
:103C50003946BDE8F04116F07EBBBDE8F0810000BA
:103C6000E001002000230278232902D0012A0DD090
:103C70000FE02AB10021012A04D0022A04D008E072
:103C8000012101E0017004E0017001E0202902D06F
:103C90000123184670470221F6E72DE9F0410B4653
:103CA0000F4680460246002108461EF029F90546C7
:103CB0000026401C16F0F4F9040008D066553B4677
:103CC0004246691C1EF01CF92046BDE8F081FEE763
:103CD0002DE9F047984614460D468246DDF82090BF
:103CE00013E0660806FB0857394650464A46904797
:103CF000002808DD44F30000C0EB540407EB08057E
:103D0000A4F1010401E005DA3446002CE9D1204693
:103D1000BDE8F0873846FBE72DE9FC5F0CAD9E4619
:103D200092468B4695E81201DDE91132DDE90F7C00
:103D300096074FF0300519D453B1D60708D002F0DA
:103D40000C0656EA080603D05B1E01E00D55641C04
:103D5000644504D2202CF9D301E00D55641C5FEAC0
:103D6000C27903D09C4201D2202CF6D3D60624D5AA
:103D700056050AD44CB1644501D09C4205D1641E5D
:103D800003D0102F03D1641E04E0102F02D0022FA5
:103D90000AD00EE0960603D4202C1ED2782606E028
:103DA000202C1AD2582602E0202C16D262260E555C
:103DB000641C202C11D20D55641C202C0DD2B8F19E
:103DC000000F01D02D2506E0550701D52B2502E077
:103DD000150702D520250D55641CCDE900EB0646DC
:103DE00055468B4698469146900713D1274606E0E4
:103DF0002A46DDE900316D1C2020B0477F1C474575
:103E0000F6D307E02A466D1C641EDDE900311BF87D
:103E10000400B047002CF5D15FEA897006D409E0B0
:103E20002A46DDE900316D1C2020B047A5EB0A01D0
:103E30004145F5D32846BDE8FC9F2DE9F04F8FB0F2
:103E400099468B46DDE91818DDE91C63DDE91A4760
:103E500086469246002009B923F010035A0507ADA3
:103E600000D5C9B1B1FBF4F204FB1212D2B20A2A96
:103E700001D2303209E05FEA836C02D54FF0410C89
:103E800001E04FF0610C62440A3AB1FBF4F12A54AC
:103E9000401C09B12028E5D3CDF80880CDE90563A1
:103EA000CDE90050CDE903474B465246594670468E
:103EB000FFF732FF0FB0BDE8F08F2DE9FF4F8FB055
:103EC0001CACDDE9239594E8030820AC94E8C00419
:103ED000002450EA010201D125F010056A050DF118
:103EE0001C0802D550EA010217D032463B46FCF7C7
:103EF000C9F9D2B20A2A01D2303206E0AB0601D5A6
:103F0000412300E061231A440A3A08F80420641CA3
:103F100050EA010201D0202CE7D3CDE90084CDF88E
:103F200008B0CDE90595CDE9036A0FAF97E80F001A
:103F3000FFF7F2FE13B0BDE8F08F9A4200D288542A
:103F4000704770472DE9FF4F95B09A468846064660
:103F50000025EEE1252877D100242746F94A0121E2
:103F6000039400E0044316F8013F203B01FA03F0FC
:103F70001042F7D130782A2811D06FF02F03307813
:103F8000A0F13002092A16D8039A44F0020402EB89
:103F9000820203EB42021044761C0390EFE758F8CC
:103FA000042B0392002A03DA504244F40054039095
:103FB00044F00204761C30782E2816D116F8010F32
:103FC00044F004042A280DD06FF02F023078A0F1BD
:103FD0003003092B09D807EB870302EB4303C7180B
:103FE000761CF3E758F8047B761C30786C280FD0E9
:103FF00006DC4C2817D068280DD06A2814D104E0BC
:10400000742810D07A280FD10DE044F400140AE08F
:1040100044F4801401E044F440147278824202D1E6
:1040200004F58014761C761C307866280BD013DCDF
:10403000582877D009DC002875D04528F6D04628C6
:10404000F4D047281AD193E118E0632835D06428CA
:1040500079D0652812D18BE1702873D008DC6728ED
:10406000F1D069286FD06E280DD06F2806D1ACE052
:1040700073282CD0752874D0782853D052461799BD
:1040800090476D1C54E1C4F30250022809D0032864
:104090000DD0D8F8001004280DD00D6008F10408E8
:1040A00046E1D8F80010EA17C1E90052F6E7D8F85F
:1040B00000100D80F2E70D70F0E718F8041B8DF882
:1040C000001000208DF80100EB46012003E058F8B5
:1040D00004BB4FF0FF3061074FF0000102D40DE048
:1040E00009F101018946B9420FDA8145F8DB1BF875
:1040F00009100029F4D108E009F101018946814243
:10410000FADB1BF809100029F6D103985346A0EBFF
:10411000090721463846179A00F080FA284400EB38
:10412000090507E044E008E10DE01BF8010B5246E9
:1041300017999047B9F10109F7D2534621463846FD
:10414000179AF2E039E00A21C4F302524FF0000B53
:104150000091022A06D058F8040BC117032A09D08F
:104160000AE023E008F1070020F00702F2E802016C
:10417000904605E000B2C117042A01D140B2C11730
:10418000002906DA0A460021404261EB02012D2295
:1041900002E0220504D52B228DF80420012203E041
:1041A000E20701D02022F7E7914657E00A2100E01C
:1041B00010214FF0000B00910BE010214FF0000B8D
:1041C00044F004040827009103E008204FF0000B9E
:1041D0000090C4F30252022A05D058F8040B0021C3
:1041E000032A08D008E008F1070020F00702F2E8EF
:1041F0000201904603E080B2042A00D1C0B24FF021
:10420000000922072AD53278702A07D0DDF800C0CD
:104210008CF0100C5CEA0B0C05D00EE040228DF8FF
:104220000420012208E050EA010306D030238DF873
:1042300004308DF8052002229146009B83F008038C
:1042400053EA0B030AD150EA010201D1620705D5F6
:1042500030228DF804204FF001097F1E3278582A51
:1042600004D039A20C920CAA02920BE03BA2F9E70F
:104270005B46009AFCF706F80C9B9B5C029A521E68
:104280000292137050EA0102F2D1029804A9081AAE
:1042900000F1200B600702D524F4803400E00127F0
:1042A0005F4502DDA7EB0B0000E0002000EB0B01F7
:1042B000009003984944401A0390E00306D4534603
:1042C0002146179A039800F0A9F90544002706E053
:1042D00001A85246C05D179990476D1C7F1C4F4541
:1042E000F6DBE0030CD553462146179A039800F0FD
:1042F00095F9054404E030205246179990476D1C0B
:104300000099481E00900029F5DC08E00298029907
:1043100052460078491C0291179990476D1CBBF1D9
:104320000001ABF1010BF1DC5BE100F065F9054444
:10433000761C307800287FF40DAE19B02846BDE811
:10434000F08F000009280100303132333435363720
:1043500038396162636465660000000030313233D1
:104360003435363738394142434445460000000071
:10437000600700D4062708F1070020F00700F0E8E6
:104380000223804603F0004C5FEA0C0001D097A0A6
:1043900009E0200501D596A005E0E00701D095A031
:1043A00001E0AFF24C001390307823F00043652811
:1043B0000CD006DC452809D046281DD047287FD1DF
:1043C0003BE0662818D067287AD136E00021112F0B
:1043D00001DB112000E0781CCDE9000104A90CA844
:1043E000FEF71AFADDE90D010C9A4FF0000B07F108
:1043F0000109109200914EE04FF000400097CDE986
:10440000011004A90CA8FEF707FADDE90D020C9BC8
:104410000F994FF0000B91461093009211B9791C3F
:1044200000EB0109B7EB090003D4C0F1FF3B07F132
:104430000109A9EB0700019042E0012F00DA0127F2
:104440000021112F01DD112000E03846CDE90001E7
:1044500004A90CA8FEF7E0F9DDE90D010C9A009122
:104460004FF0000BB946109221070FD4009A4A452D
:1044700003DA914601E0A9F10109B9F1010F05DD67
:10448000109AA9F10101515C3029F4D0B84202DA46
:1044900010F1040F03DA0121CDE9011010E000282A
:1044A00003DC8344A9EB000102E0411C494500DD27
:1044B0008946A0EB0B00401C01904FF00040029099
:1044C000200705D40198484502DB4FF0FF300190EA
:1044D00000208DF84B0002980DF14B07B0F1004F12
:1044E00025D002200C902B200D90029800280CDA89
:1044F000404202902D200D9007E00A210298FCF71F
:10450000FCF83031029007F8011D0C99481E0C9000
:104510000029F2DC02980028EFD1791E0D9808706E
:10452000307800F0200040F0450007F8020D11A897
:10453000C01BC01D02901398007800B1012000EB51
:104540000901019801EBE071029801440398401AB7
:10455000401E0390E00306D453462146179A039861
:1045600000F05CF805441398007818B1524617998A
:1045700090476D1CE00323D553462146179A0398B4
:1045800000F04CF805441BE0BBF1000F07DB00987E
:10459000584504DD1098179910F80B0001E01799A1
:1045A00030205246904701980BF1010B401E05F157
:1045B0000105019004D12E205246179990476D1C99
:1045C000B9F10001A9F10109DEDC05E017F8010BE2
:1045D0005246179990476D1C0299481E0290002977
:1045E000F4DC53462146179A03989EE62D000000FE
:1045F0002B000000200000002DE9F04104460025BA
:104600001E461746880404D405E039462020B047EA
:104610006D1C641EF9D52846BDE8F0812DE9F041F6
:10462000044600251E469046C80301D5302700E009
:104630002027880404D505E041463846B0476D1C64
:10464000641EF9D52846BDE8F0810A68531C0B604A
:10465000107070472DE9FF4F89B082460A980024F8
:10466000169D002801D1DFF8F0A367E1252802D0CC
:104670002246641CE2E1491C002608460C910178A0
:104680002B291BD004DC20291BD0232904D11BE0BB
:104690002D290ED0302909D00027C8B2FEF77EF9A7
:1046A000A8B10CA8FEF7A1F807461CE046F00106E9
:1046B00001E046F00206401C0C90E0E746F00406DC
:1046C000F9E746F00806F6E746F01006F3E70C981F
:1046D00001782A2907D180CD002F02DA46F00206A0
:1046E0007F42401C0C900C984FF0000801782E2956
:1046F00017D1401C0C9046F480660078FEF74EF906
:1047000020B10CA8FEF771F880460AE00C990878F1
:104710002A2806D101CD002800DC0020491C804653
:104720000C910C9801786C290AD004DC68290FD010
:104730006A2918D127E0742928D07A2913D125E0D5
:10474000401C0C90017846F480766C291BD00AE05E
:10475000401C0C90017846F08006682903D146F091
:104760004006401C0C9002460078692822D015DCD7
:1047700062281FD00DDC252877D050281AD0582861
:104780007FF476AF16E046F40076EAE746F48076EA
:10479000E7E763286AD06428F2D10BE073286FD072
:1047A00004DC6F2806D07028EAD103E0752801D018
:1047B0007828E5D178280DD058280BD070280BD058
:1047C000502809D06F2816D0622816D00A2126F06A
:1047D000100616E0102107E05078102146F4887684
:1047E000562804D1521C0C921078582807D0107803
:1047F000502804D005E0082108E0022106E046F038
:1048000020061078692803D0642801D026F00C0611
:10481000700501D526F001061078692813D06428A8
:1048200011D0562854D0B00560D5ED1D0020CDE93B
:104830000410CDF818800290CDE9077625F0070521
:10484000F5E8020121E0B00528D5ED1D25F00705AA
:104850000023F5E802020DF11009002A89E80A0197
:10486000CDE9077603DA012102E0E4E070E00021FF
:104870000023029119461B1A914102DA114604E005
:104880008EE00021404261EB0201CDE90001DDE94B
:104890000A1322465046FFF710FB4BE0F00503D504
:1048A00001CD0BE0404210E0700602D515F8040B74
:1048B00004E03006F4D535F8040B00B2CDE9021857
:1048C000CDE90476C10F0028ECDDCDE900012BE035
:1048D00001CD41680968009103680B98021B0A9892
:1048E00001195046FFF7B6FE044424E0F00508D550
:1048F000CDE90218CDE9047602CD0020CDE9001003
:1049000012E0700602D515F8040B06E0300603D558
:1049100035F8040B80B200E001CDCDE9021800218A
:10492000CDE90001CDE90476DDE90A1322465046BF
:10493000FFF783FA04460C98401C0C900C990878F9
:1049400000287FF493AE0B9884427BD222467AE013
:104950004FF00108B00707D50BE02246DDE90A1346
:10496000641C2020D446E047404608F10108B842C4
:10497000F3D3DDE90A13224615F8040B641CD44670
:10498000E047B00706D4D6E72246DDE90A13641CE7
:104990002020D047414608F10108B942F4D3CAE7C4
:1049A00055F804BBB8F100005A4601D0014601E0B9
:1049B0004FF0FF31584600E0401C03780BB1491E10
:1049C000FAD2A0EB0209700505D548464146C1451B
:1049D00000D308468146B00707D514E02246DDE93A
:1049E0000A13641C2020D446E047494609F1010916
:1049F000B942F3D307E0DDE90A1322460BF1010BBC
:104A0000641CD446E0479BF8000020B17105F2D544
:104A1000B8F10108EFD2B00706D48CE72246DDE9F1
:104A20000A13641C2020D047494609F10109B94204
:104A3000F4D380E706E02246641C2520DDE90A1352
:104A4000D04778E7421E034600200A99D0470DB0B0
:104A50002046BDE8F08F0000433F000810B503007A
:104A60004FF000000DD04A1E114200D0FEE719445D
:104A7000491E91430A46B1F5803F02D20C2A01D962
:104A8000084610BD0C2010BD08444A1E401E90432D
:104A9000114200D0FEE770472DE9F04104460120A5
:104AA00000250F4660862E460BE01B49FBF746FCAF
:104AB00010B16D1CADB202E0608E401C6086761CA9
:104AC000B6B257F8260010B101780029EDD1208E3A
:104AD000A8421ED0A06A002610B115F06DFBA66298
:104AE000E06A10B115F068FBE662E80015F0D8FA4C
:104AF000A06238B1680015F0D3FAE06218B1A16A7B
:104B000011B102E0FEE7FEE70025690015F06AFC3E
:104B10002586BDE8F0810000E02501082DE9F84F69
:104B20008146407A0D4600F00700022819D0104651
:104B30008046954200DD2A46164603202A4F2B4B1D
:104B400000EB460020F00304B86819681034411ADD
:104B50007A6804EB010C944505D2416821F00041CC
:104B600024E00846E4E7944219D89A464FF0FF3B08
:104B700008197968884210D9002269461C48CDF886
:104B800000B00BF05DFF002269461A480BF058FF99
:104B9000B968DAF80000091AEAE7B868DDE72046E4
:104BA00015F07EFAC0B1416841F0004188EA650223
:104BB000416089EA02010160416801F04041491CFD
:104BC00031F0804141608681A0F80E8005D500F16A
:104BD00010018160BDE8F88FFEE7B96801F11002AD
:104BE00021448260B960F5E750010020AC0100204B
:104BF00063DB0008A10A010870B586B000224B4CA7
:104C00008DF808208DF80C208DF81020E2888A425B
:104C100001D0FF22A270E18090F83C20142502F020
:104C200003024FF4B476012A24D0A378022A60D07C
:104C30009A4211D010F8263F03EB031303EB430312
:104C4000B3FBF5F32370407800EB001000EB40005D
:104C5000B0FBF5F06070A27004AA03A8CDE90002D1
:104C600001EB41004FF6FF7101EA400002AB6278B0
:104C700021781BE0A3789A4210D0838C03EB430386
:104C80005B02B3FBF6F3A38090F8270000EB001063
:104C900000EB4000B0FBF5F06070A27004AA03A81E
:104CA000CDE90002C9B202AB62783CE008F08AFCB0
:104CB0009DF810209DF80C10D308BDF800209DF839
:104CC000080063F30402ADF800208A08BDF8001064
:104CD00062F34A11ADF80010C108BDF8000061F39D
:104CE000CF20ADF8000080B20090BDF8000006B003
:104CF00070BD9A4210D0838C03EB43035B02B3FB7D
:104D0000F6F3A38090F8260000EB001000EB4000C3
:104D1000B0FBF5F02070A27004AA03A8CDE9000250
:104D2000CAB2217802ABA088C0E70000B40200201C
:104D300010B5084C012020700748FEF7E0FB002862
:104D4000A06803D0BDE810401CF048BDBDE810408D
:104D50001CF038BD840100200093002010B50446EB
:104D600090F84200A16B820709D4B4F840204AB100
:104D7000A2F57F43FF3B1BD0521EA4F84020B4F89D
:104D80004020AAB909B1820712D521461448FEF77E
:104D900020FCFFF7CDFFE16809B120468847216973
:104DA00009B1204688472046BDE8104015F004BAF6
:104DB000E26B52422263002911D0820702D4626B57
:104DC000524222634210521C62F3410084F84200B6
:104DD000A26A206A2262A062E06AE162A06310BD5A
:104DE0000093002070B5304E70681CF0B3FB054690
:104DF000707880F00100707047E00020307094F807
:104E000042007178C0F380028A4242D061F382008E
:104E100084F84200216B4A19030719D4002917DCD2
:104E2000002A15DBC00709D1616939B120468847DE
:104E3000216A01442162A16A0844A062A16809B103
:104E40002046884794F8420040F0080084F8420069
:104E5000206B4019206316D4E16A884200DD21638B
:104E6000E169204688470146606A884204D0616251
:104E700062680AB120689047D4E90B01814202DBE5
:104E80002046FFF76BFF307818B10848FEF737FB74
:104E900003E021460548FEF744FB0400ADD11CF0B9
:104EA0005FFB706070BD0000840100200093002053
:104EB00070B5044640680D4608B1FFF7F9FF226857
:104EC000002A04D029462046BDE87040104770BD36
:104ED00089B20CF098BD89B20CF0D1BD2DE9FF4F1D
:104EE0008BB01E46DDE91801CDE9060100200490D3
:104EF0001F981E9D042809D0052809D006280CD02B
:104F000014287CD101200290022004E00020FAE75E
:104F1000012002900320059008E001200290022069
:104F20000590FEF781FD0068806B04900D980024C9
:104F300016FB00F00A900C98401E09900D98401E38
:104F400008902CE11A980699604301EB20231B98E6
:104F50000799604301EB202219124FEA222007D45F
:104F60000C9FB94204DA002802DB0D9FB84201DB36
:104F7000002011E1DBB2D2B2802B05DAC3F17F034E
:104F80004FF0FF375B0003E001275B00A3F5807360
:104F90009A46802A05DAC2F17F024FF0FF335200B1
:104FA00003E001235200A2F58072914600FB06182F
:104FB000DDF814C00B9A08FB0C2201EB070C5FEA2A
:104FC0000C0E73D4DDF82480C6456FDC10EB0308AB
:104FD0006CD4DDF820C0E04568DCDDF814C017FBB8
:104FE0000C2B13FB06F707FB0C23029FF7B31F9F45
:104FF000052F05D0142F09D0062F47D053E0D2E05B
:1050000092F802C099789BF8020010E0DDE90A7C72
:105010000CEB4707394400FB06FC00FB067708FB56
:1050200006F81CF801C017F80E0018F801106145C9
:1050300007D011FB09F7C9F580711CFB0171C1F3A1
:105040000721604507D010FB0AF7CAF580701CFBEA
:105050000070C0F3072008444008285556D0107847
:10506000517800EB0120ADF8000000E01FE0187857
:10507000597800EB0120ADF80C009BF800109BF86C
:10508000010001EB0020ADF804001CE00498118839
:1050900080B281423FF46CAF19888142FAD0BBF8EC
:1050A00000108142F6D0FF210846D4E72FE0108897
:1050B000ADF80000BBF80000ADF804001888ADF8AA
:1050C0000C00FF202855BDF80000BDF80C108842E8
:1050D00003D1BDF80410884212D009F0FF020099F4
:1050E00003980EF06DFB0390DDE900100AF0FF025B
:1050F0000EF066FB7F22019003990EF061FB009099
:105100001D98BDF8001000EB4400018045E092F8C6
:1051100000C092F801800CEB082C1FFA8CF8DDF827
:1051200074C02CF81480DDF87CC0BCF1050F06D0EB
:10513000BCF1060F05D0BCF1140F08D109E092783C
:105140000FE0049A92B2904501D1002209E0FF22BB
:1051500007E00B9A00FB062C0A9A01EB42021CF8AE
:10516000022009B9002F05DBDDF824C0614504D118
:10517000002F02DDCAF1FF000BE008B9002B06DBAF
:10518000089988427FF4F4AE002B7FF7F1AEC9F1A5
:10519000FF0010FB02F0000A2855641C24B21C9882
:1051A0008442FFF6CFAE0FB0BDE8F08F10B5818F0F
:1051B00092B00446A9B168460BF0D0FF0B4801211C
:1051C000CDE90040A08F0B9000200890CDE90901A7
:1051D000074807900748039068460CF037F812B06C
:1051E00010BD12B0BDE810401EF05AB819330208C5
:1051F000211201081B33020870B50D46044600F069
:105200004DF800B1FEE76868616820F00300001DFA
:1052100008446060204600F049F8204670BD4068B0
:10522000103120F00300884201D301207047002094
:1052300070472DE9FC47054648680C4620F00300FE
:1052400001AA69461DF0B7F9DDE9006005EBC6115A
:1052500001EB80098046D9F83C0060B164B1C4E933
:10526000020504F10807C46038460421FFF70CFC6E
:10527000874202D0FEE7FEE7FEE7C9F83C40012383
:10528000286903FA06F10843286105EB860003FA52
:1052900008F142690A434261BDE8FC87406830F08A
:1052A000030001D0002070470120704710B504466C
:1052B00000F08CF8046010BD2DE9FC474FF00007AA
:1052C00080460E0001973D46009745D00C460DF1F3
:1052D000040AE946802907D3084623F052FB411F00
:1052E00001208840401E04444A46514620461DF095
:1052F00062F9019C0A2C2FDA08EB840000994069BE
:105300004FF0FF3202FA01F1454608400CD1641C0F
:105310002869A240104016D023F02BFB04460190D0
:1053200005EB8000406980B123F023FB05EBC4113D
:10533000009001EB8000C56B75B1686820F0030038
:10534000B04203D2FEE73D46F6E7FEE7DDE9003274
:10535000294640461EF0FCFD2846BDE8FC8710B5F6
:105360000446FFF7A3FF416841F002014160606815
:1053700040F00100606010BD10B5044600F026F852
:10538000416821F002014160606820F00100606026
:1053900010BD70B506460D46084600F017F804002B
:1053A00008D0207910F0010F0ED02846FFF776FFC5
:1053B00008B1FEE7FEE72146304600F03EF8214600
:1053C0002846FFF719FF0546284670BD10B542680C
:1053D00000F1080122F00302121F8C18FFF75EFF94
:1053E00000B1FEE7204610BD70B506460C004FF038
:1053F00000001FD0FAB12079154610F0010F1BD024
:1054000011462046FFF70BFF78B12946204600F0F1
:1054100025F805462046FFF749FF6868294640F011
:10542000020068603046FFF704FF2046FFF7A4FF44
:1054300004F1080070BDFEE7FEE77CB5054648684C
:105440000C4620F003006A4601A91DF0B4F8DDE91E
:105450000032214628461EF07BFD7CBD2DE9F0413F
:105460000D4604460830091F4618606806F1080713
:1054700020F00300401BA0F1040838460421FFF788
:1054800003FB874200D0FEE7606808EB050120F0CF
:105490000300091D884200D0FEE7307900F00300C8
:1054A00040EA0800706020F003000C2800D2FEE7FC
:1054B000207900F00300284360603046FFF74FFF7B
:1054C0003046BDE8F08138B5044613F0B3F905461F
:1054D00013F0E5F90028204605D0218FE18617F06A
:1054E000BFFF012038BD11F0FAFB002820461ED076
:1054F00011F0CAFA218FE08E81420CD02087E08E15
:1055000000906A461C21204611F022FE0128E9D1B4
:10551000204617F0A5FF284613F0CDF90428E0D166
:10552000204616F05FFB002112F027FBD9E711F0AF
:1055300033FCD6E770B511F007FE054616F092FB76
:10554000044628460DF014F901462046BDE8704097
:1055500000221BF029BB00002DE9F04F0C4687B05C
:105560000546002116F06EFA60B32146284600F089
:1055700053FA2146284600F06FF80021284617F01C
:105580007DF905900021284617F026FA04900021A5
:10559000284617F05CF8012800D000208046002142
:1055A000284617F078FB06460021284617F0BEF87B
:1055B00042F2D17907464E450BD1688C400508D49C
:1055C000012607E007B02046BDE8F04F1C2114F08B
:1055D00009BF0026284616F0B5FADFF878A0834602
:1055E00028460021BAF8042017F050FAD4F810C069
:1055F000A3682168CDF800C0CDF80C80CDE9013159
:10560000C2B231465846059B09F00EFF20834F4534
:1056100004D1688C800501D4012600E000262846CC
:1056200016F074FA074628460021BAF8082017F049
:105630002DFAC2B2606900256368E1688DE82B002D
:1056400031463846049B09F0EFFE608307B0BDE8A1
:10565000F08F0000280200202DE9F34F81B00C46A6
:10566000019809F067F98046019816F06BFA8346B5
:10567000404600F0CDFF2061400014F03FFD206067
:105680002069400014F03AFD002541F69A79A060A7
:1056900035E038F91510454E49452FD10027DFF880
:1056A00010A11CE03946019816F0CCF95146009043
:1056B00017F009FC90B9009809F04EF901280DD1B6
:1056C000009809F03FF9A84208D1009817F0AEFB06
:1056D000B04203DB009817F0A9FB06467F1C019837
:1056E00016F0C2F9B842DDD8002E03DBA06820F81E
:1056F000156003E0A168002021F815006D1C2069E9
:10570000A842C6D800252F46284641F69B764A4631
:1057100015E038F91010B14204DB0D44A5F5F85539
:105720009B3D0BE0914204D1A16831F8101039443F
:1057300003E0A36823F8101039440FB2401C21691C
:105740008142E6D80021019817F098F82169C1F14B
:10575000010200FB02B0C01B01B2002900DA0021E7
:1057600000224FF0FF37104610E038F91030B342F6
:105770000BDBA3F5F8539B3B1AB211FB02F3B3FB0F
:10578000F5F3A76827F810300746401C23698342C9
:10579000EBD8002F07DBA81A4843B0FBF5F0081A36
:1057A000A16821F81700BDE8FE8F000001E0FFFFAF
:1057B000010006002DE9F05F00228046114618F036
:1057C000D5FD0021404616F06FFF044600214046FB
:1057D00017F00EF9204407B20021404616F0FAFFF8
:1057E00020440FFA80FB404616F0D2FEC11901EBAF
:1057F0000B000FFA80F9274C404616F035F9824627
:1058000000252BE0D8F808002349006850F82560EF
:10581000304617F058FB00BB304617F079FE60BBEE
:105820000021304616F0D8FE38B3012825D00228D2
:1058300023D0032821D00021304617F03EFA60B96A
:1058400006F1140006460CF0D9F93844A04203DBF7
:1058500030460CF0D3F9C41924B26D1C5545D1D390
:1058600041F6FF70C44212D004EB0B0000B249466F
:10587000484500DC0846BDE8F09FB6F91A10B8F9B3
:105880001600081A411CA142E6DB0C46E4E7484634
:10589000F1E7000001E0FFFF010004002DE9F05FE7
:1058A00000220546114618F04BFD0021284616F04F
:1058B000FBFE04460021284617F040F820440FFA6A
:1058C00080F90021284616F0EBFF20440FFA80F8FB
:1058D000284616F06BFE00EB080101EB09000FFAF9
:1058E00080FB4B4C284616F0BFF882460021284624
:1058F00016F08FFE01284FF000062CD06AE0A86851
:105900004449006850F82670384617F0DCFA08BBA6
:10591000384617F0FDFD38BB0021384616F05CFE16
:1059200010B3032820D006281ED008281CD0002140
:10593000384617F0BCF968B907F1140007460CF0B7
:10594000A7F94844A04204DB38460CF0A1F900EB6B
:10595000090424B2761C5645D1D341F6FF70C442E7
:1059600041D004EB08003DE0B5F91800B7F9141078
:10597000401A411CA142ECDB0C46EAE7A868254925
:10598000006850F82670384617F09DFA08BB384674
:1059900017F0BEFD88BB0021384616F01DFE60B32F
:1059A00001282BD0042829D0072827D000213846E9
:1059B00017F083F968B907F1140007460CF068F98D
:1059C0004044A04204DB38460CF062F900EB0804C6
:1059D00024B2761C5645D1D341F6FF70C44202D0A2
:1059E00004EB090004B241F6FF70C442584602D0ED
:1059F0005C4500DD2046BDE8F09FFFE7B7F91800E1
:105A0000B5F91410401A411CA142E1DB0C46DFE756
:105A100001E0FFFF010004002DE9F84F0C4683462A
:105A200009F080FB804600F0F3FD6061400014F057
:105A300065FB60606069400014F060FB002541F682
:105A40009A79E06035E038F91510474E49452FD175
:105A50000027DFF818A11CE03946584615F0F2FF80
:105A60005146009017F02FFA90B9009809F0EEFB1C
:105A700001280DD1009809F0DFFBA84208D1009859
:105A800016F0B5F8B04203DB009816F0B0F8064601
:105A90007F1C584615F0E8FFB842DDD8002E03DB26
:105AA000E06820F8156003E0E168002021F81500A7
:105AB0006D1C6069A842C6D800252F46284641F6CD
:105AC0009B764A4615E038F91010B14204DB0D44CC
:105AD000A5F5F8559B3D0BE0914204D1E16831F802
